:100000000C9462000C948A000C948A000C948A0070
:100010000C948A000C948A000C948A000C948A0038
:100020000C948A000C948A000C948A000C948A0028
:100030000C948A000C948A000C948A000C948A0018
:100040000C94E3020C948A000C94B1020C948B0281
:100050000C948A000C948A000C948A000C948A00F8
:100060000C948A000C948A000000000024002700F1
:100070002A0000000000250028002B0000000000DE
:1000800023002600290004040404040404040202DA
:100090000202020203030303030301020408102007
:1000A0004080010204081020010204081020000012
:1000B0000008000201000003040700000000000027
:1000C00000002D0311241FBECFEFD8E0DEBFCDBF4F
:1000D00011E0A0E0B1E0E8ECFAE002C005900D927A
:1000E000AA31B107D9F721E0AAE1B1E001C01D9220
:1000F000AE3DB207E1F710E0C2E6D0E004C02197C0
:10010000FE010E945705C136D107C9F70E947F033F
:100110000C9462050C940000CF92DF92EF92FF9254
:100120000F931F93CF93DF936C017A018B01C0E093
:10013000D0E0CE15DF0589F0D8016D918D01D60193
:10014000ED91FC910190F081E02DC6010995892B7C
:1001500011F47E0102C02196ECCFC701DF91CF914F
:100160001F910F91FF90EF90DF90CF900895FC01C9
:10017000918D828D981761F0828DDF01A80FB11DDE
:100180005D968C91928D9F5F9F73928F90E0089502
:100190008FEF9FEF0895FC01918D828D981731F0BC
:1001A000828DE80FF11D858D90E008958FEF9FEF10
:1001B0000895FC01918D228D892F90E0805C9F4FE6
:1001C000821B91098F739927089584E391E00E941F
:1001D000D90021E0892B09F420E0822F0895FC0149
:1001E000848DDF01A80FB11DA35ABF4F2C91848DC0
:1001F00090E001968F739927848FA689B7892C93F5
:10020000A089B1898C9180648C93938D848D98138F
:1002100006C00288F389E02D80818F7D8083089558
:10022000EF92FF920F931F93CF93DF93EC0181E046
:10023000888F9B8D8C8D981305C0E889F989808102
:1002400085FD24C0F62E0B8D10E00F5F1F4F0F733E
:100250001127E02E8C8DE8120CC00FB607FCFACFE8
:10026000E889F989808185FFF5CFCE010E94EF00F2
:10027000F1CF8B8DFE01E80FF11DE35AFF4FF082A5
:100280000B8FEA89FB898081806207C0EE89FF8934
:100290006083E889F98980818064808381E090E0CF
:1002A000DF91CF911F910F91FF90EF900895CF9321
:1002B000DF93EC01888D8823C9F0EA89FB8980816E
:1002C00085FD05C0A889B9898C9186FD0FC00FB640
:1002D00007FCF5CF808185FFF2CFA889B9898C9181
:1002E00085FFEDCFCE010E94EF00E7CFDF91CF91E8
:1002F000089580E090E0892B29F00E94E5008111AB
:100300000C9400000895833081F028F4813099F036
:100310008230A1F008958730A9F08830B9F0843098
:10032000D1F4809180008F7D03C0809180008F7711
:1003300080938000089584B58F7702C084B58F7D47
:1003400084BD08958091B0008F7703C08091B00084
:100350008F7D8093B00008951F93CF93DF93282F54
:1003600030E0F901E255FF4F8491F901E656FF4F65
:10037000D491F901EA57FF4FC491CC23C9F0162F4D
:1003800081110E948301EC2FF0E0EE0FFF1FEE5869
:10039000FF4FA591B4918FB7F894111105C09C91AE
:1003A000ED2FE095E92302C0EC91ED2BEC938FBF8C
:1003B000DF91CF911F910895CF93DF9390E0FC01DF
:1003C000E656FF4F2491FC01EA57FF4F84918823A2
:1003D00061F190E0880F991FFC01E859FF4FC5912A
:1003E000D491FC01EE58FF4FA591B491611109C061
:1003F0009FB7F8948881209582238883EC912E23DF
:100400000BC0623061F49FB7F8943881822F8095D9
:1004100083238883EC912E2B2C939FBF06C08FB72C
:10042000F894E8812E2B28838FBFDF91CF91089518
:100430003FB7F89480911F0190912001A091210174
:10044000B091220126B5A89B05C02F3F19F0019657
:10045000A11DB11D3FBFBA2FA92F982F8827820F4A
:10046000911DA11DB11DBC01CD0142E0660F771F9A
:10047000881F991F4A95D1F708958F929F92AF9246
:10048000BF92CF92DF92EF92FF926B017C010E94AC
:1004900018024B015C01C114D104E104F104F1F034
:1004A0000E941802DC01CB0188199909AA09BB092D
:1004B000883E9340A105B10570F321E0C21AD1082E
:1004C000E108F10888EE880E83E0981EA11CB11C9B
:1004D000C114D104E104F10419F7DDCFFF90EF90CE
:1004E000DF90CF90BF90AF909F908F90089500972E
:1004F00069F0FC0101900020E9F73197AF01481B3A
:10050000590BBC0184E391E00C948C0080E090E0F6
:1005100008950E945D051F920F920FB60F9211244D
:100520002F933F934F935F936F937F938F939F93FB
:10053000AF93BF93EF93FF9384E391E00E94EF00AA
:10054000FF91EF91BF91AF919F918F917F916F91AB
:100550005F914F913F912F910F900FBE0F901F9081
:1005600018951F920F920FB60F9211242F938F930D
:100570009F93EF93FF93E0914401F09145018081B7
:10058000E0914A01F0914B0182FD12C0908180916F
:100590004D018F5F8F7320914E01821751F0E091D2
:1005A0004D01F0E0EC5CFE4F958F80934D0101C052
:1005B0008081FF91EF919F918F912F910F900FBEAE
:1005C0000F901F9018951F920F920FB60F92112443
:1005D0002F933F938F939F93AF93BF9380911B0172
:1005E00090911C01A0911D01B0911E0130911A0142
:1005F00023E0230F2D3720F40196A11DB11D05C066
:1006000026E8230F0296A11DB11D20931A018093A5
:100610001B0190931C01A0931D01B0931E018091BA
:100620001F0190912001A0912101B091220101961A
:10063000A11DB11D80931F0190932001A093210162
:10064000B0932201BF91AF919F918F913F912F91D4
:100650000F900FBE0F901F901895CF93DF93E4E398
:10066000F1E01382128288EE93E0A0E0B0E0848390
:100670009583A683B78384E091E09183808385ECA2
:1006800090E09587848784EC90E09787868780EC5C
:1006900090E0918B808B81EC90E0938B828B82EC4D
:1006A00090E0958B848B86EC90E0978B868B118EF7
:1006B000128E138E148EC1EDD1E083E090E09E8304
:1006C0008D8384E090E098878F8382E090E09A8722
:1006D000898781E090E09C878B8760E082E00E94C0
:1006E000DC0161E08D810E94DC0161E08F810E946C
:1006F000DC0160E08B85DF91CF910C94DC01CF931E
:10070000DF93CDB7DEB7A1970FB6F894DEBF0FBE6B
:10071000CDBF789484B5826084BD84B5816084BD8A
:1007200085B5826085BD85B5816085BD80916E008F
:10073000816080936E0010928100809181008260C0
:1007400080938100809181008160809381008091FD
:1007500080008160809380008091B10084608093EC
:10076000B1008091B00081608093B00080917A00E8
:10077000846080937A0080917A00826080937A000E
:1007800080917A00816080937A0080917A008068FD
:1007900080937A001092C100E0914401F0914501EC
:1007A00082E08083E0914001F09141011082E0916C
:1007B0004201F091430180E1808310924C01E0916D
:1007C0004801F091490186E08083E0914601F09173
:1007D0004701808180618083E0914601F09147016B
:1007E000808188608083E0914601F091470180819B
:1007F00080688083E0914601F091470180818F7D80
:1008000080834AE0C42ED12CE12CF12C61E0809150
:10081000D8010E94AC0161E08091D6010E94AC0138
:1008200064E670E080E090E00E943D0260E080912C
:10083000D8010E94AC016AE070E080E090E00E9484
:100840003D0260E08091D6010E94AC016AE070E058
:1008500080E090E00E943D020CE010E0812C912CA1
:10086000540161E08091D6010E94AC016AE070E021
:1008700080E090E00E943D024091DA015091DB015E
:100880005527FA01E255FF4F8491FA01E656FF4FD2
:100890007490FA01EA57FF4F64906620A1F081112D
:1008A0000E948301E62DF0E0EE0FFF1FE458FF4F9A
:1008B000A591B491EC917E2231E020E009F430E082
:1008C000832F922F02C080E090E0880C991CAA1C14
:1008D000BB1C092E000CAA0BBB0B880E991EAA1E6E
:1008E000BB1E60E08091D6010E94AC016AE070E01E
:1008F00080E090E00E943D020150110909F0B1CF63
:100900008092300190923101A0923201B092330175
:1009100080912C0190912D01A0912E01B0912F0179
:10092000B501A401481B590B6A0B7B0B41305840A1
:100930006105710564F08091280190912901A091D1
:100940002A01B0912B010197A109B10914C088199E
:100950009909AA09BB0981309840A105B1059CF00D
:100960008091280190912901A0912A01B0912B0139
:100970000196A11DB11D8093280190932901A09398
:100980002A01B0932B0180922C0190922D01A0920C
:100990002E01B0922F0180912701811113C0B094D4
:1009A000A09490948094811C911CA11CB11C8092F5
:1009B000230190922401A0922501B092260181E0AA
:1009C0008093270180E191E00E94770280902801C6
:1009D00090902901A0902A01B0902B01B7FE26C06B
:1009E000E0913401F09135010190F081E02D6DE24C
:1009F00084E391E0099522273327A90128193909B1
:100A00004A095B0919A28E010F5D1F4FCA01B90186
:100A1000A70196010E943505605DF80162938F0180
:100A2000211531054105510589F715C0A50194012E
:100A300019A28E010F5D1F4FCA01B901A7019601CE
:100A40000E943505605DF80162938F012115310523
:100A50004105510589F7C8010E94770286E191E0BE
:100A60000E9477020E947901D1CEA1E21A2EAA1B20
:100A7000BB1BFD010DC0AA1FBB1FEE1FFF1FA2174E
:100A8000B307E407F50720F0A21BB30BE40BF50B4B
:100A9000661F771F881F991F1A9469F760957095D4
:100AA000809590959B01AC01BD01CF010895EE0F9B
:100AB000FF1F0590F491E02D099481E090E0F894F7
:080AC0000C946205F894FFCFCD
:100AC8000000000010018C00D900B700CB005701CE
:0A0AD8005265763A20000D0A000076
:00000001FF
