:100000000C9462000C949D030C9476030C948A006B
:100010000C948A000C948A000C948A000C948A0038
:100020000C948A000C948A000C948A000C948A0028
:100030000C948A000C948A000C948A000C948A0018
:100040000C942C030C948A000C94FA020C94D402A5
:100050000C948A000C948A000C948A000C948A00F8
:100060000C948A000C948A000000000024002700F1
:100070002A0000000000250028002B0000000008D6
:10008000000201000003040700000000000000005F
:10009000010204081020408001020408102001021F
:1000A000040810200000000023002600290004049A
:1000B0000404040404040202020202020303030310
:1000C0000303C40311241FBECFEFD8E0DEBFCDBFB2
:1000D00011E0A0E0B1E0E0E8F0E102C005900D928F
:1000E000A434B107D9F721E0A4E4B1E001C01D9226
:1000F000AA3FB207E1F710E0C2E6D0E004C02197C2
:10010000FE010E946906C136D107C9F70E947C042E
:100110000C943E080C940000CF92DF92EF92FF9275
:100120000F931F93CF93DF936C017A018B01C0E093
:10013000D0E0CE15DF0589F0D8016D918D01D60193
:10014000ED91FC910190F081E02DC6010995892B7C
:1001500011F47E0102C02196ECCFC701DF91CF914F
:100160001F910F91FF90EF90DF90CF900895FC01C9
:10017000918D828D981761F0828DDF01A80FB11DDE
:100180005D968C91928D9F5F9F73928F90E0089502
:100190008FEF9FEF0895FC01918D828D981731F0BC
:1001A000828DE80FF11D858D90E008958FEF9FEF10
:1001B0000895FC01918D228D892F90E0805C9F4FE6
:1001C000821B91098F73992708958DE491E00E9415
:1001D000D90021E0892B09F420E0822F0895FC0149
:1001E000848DDF01A80FB11DA35ABF4F2C91848DC0
:1001F00090E001968F739927848FA689B7892C93F5
:10020000A089B1898C9180648C93938D848D98138F
:1002100006C00288F389E02D80818F7D8083089558
:10022000EF92FF920F931F93CF93DF93EC0181E046
:10023000888F9B8D8C8D981305C0E889F989808102
:1002400085FD24C0F62E0B8D10E00F5F1F4F0F733E
:100250001127E02E8C8DE8120CC00FB607FCFACFE8
:10026000E889F989808185FFF5CFCE010E94EF00F2
:10027000F1CF8B8DFE01E80FF11DE35AFF4FF082A5
:100280000B8FEA89FB898081806207C0EE89FF8934
:100290006083E889F98980818064808381E090E0CF
:1002A000DF91CF911F910F91FF90EF900895CF9321
:1002B000DF93EC01888D8823C9F0EA89FB8980816E
:1002C00085FD05C0A889B9898C9186FD0FC00FB640
:1002D00007FCF5CF808185FFF2CFA889B9898C9181
:1002E00085FFEDCFCE010E94EF00E7CFDF91CF91E8
:1002F000089580E090E0892B29F00E94E5008111AB
:100300000C940000089590E0FC01E458FF4F3491F4
:10031000FC01E057FF4F2491FC01E255FF4FE491AF
:10032000EE2309F43BC0332339F1333091F038F434
:100330003130A9F0323001F584B58F7D12C03730ED
:1003400091F03830A1F03430B9F4809180008F7D85
:1003500003C0809180008F77809380000DC084B5AA
:100360008F7784BD09C08091B0008F7703C08091E2
:10037000B0008F7D8093B000F0E0EE0FFF1FEE58CD
:10038000FF4FA591B4918FB7F894EC91611103C020
:1003900020952E2301C02E2B2C938FBF0895CF9331
:1003A000DF9390E0FC01E057FF4F2491FC01E25500
:1003B000FF4F8491882361F190E0880F991FFC0121
:1003C000E859FF4FC591D491FC01EE58FF4FA5911C
:1003D000B491611109C09FB7F89488812095822358
:1003E0008883EC912E230BC0623061F49FB7F894A0
:1003F0003881822F809583238883EC912E2B2C9338
:100400009FBF06C08FB7F894E8812E2B28838FBF3B
:10041000DF91CF9108953FB7F89480914901909171
:100420004A01A0914B01B0914C0126B5A89B05C093
:100430002F3F19F00196A11DB11D3FBFBA2FA92F63
:10044000982F8827820F911DA11DB11DBC01CD01E0
:1004500042E0660F771F881F991F4A95D1F70895CC
:100460000895DC01ED91FD918081ED91FD919081E8
:10047000ED91FD916C9163708E2309F064609F2370
:1004800009F06860EEE4F2E0E60FF11D6595659510
:100490006D936D917D918D919D91099423C01AC0AA
:1004A00012C016C010C01EC009C014C013C006C0C0
:1004B00019C009C00DC007C00DC014C06250704003
:1004C000804090400BC0615070408040904006C01A
:1004D0006E5F01C06F5F7F4F8F4F9F4F9E938E93D4
:1004E0007E936E9308958091EC019091ED010C94B0
:1004F00031028091EA019091EB010C943102009756
:1005000069F0FC0101900020E9F73197AF01481B29
:10051000590BBC018DE491E00C948C0080E090E0DC
:1005200008958F929F92AF92BF920F931F93CF9394
:10053000DF93CDB7DEB7A1970FB6F894DEBF0FBE3D
:10054000CDBF19A2423008F44AE08E010F5D1F4F63
:10055000842E912CA12CB12CA50194010E94280677
:10056000E62FB901CA0101501109EA3014F4E05D27
:1005700001C0E95CD801EC93232B242B252B61F7D8
:10058000C8010E947F02A1960FB6F894DEBF0FBE8D
:10059000CDBFDF91CF911F910F91BF90AF909F90F2
:1005A0008F9008950E9439081F920F920FB60F92F4
:1005B00011242F933F934F935F936F937F938F9368
:1005C0009F93AF93BF93EF93FF938DE491E00E94CD
:1005D000EF00FF91EF91BF91AF919F918F917F912C
:1005E0006F915F914F913F912F910F900FBE0F90A0
:1005F0001F9018951F920F920FB60F9211242F93F0
:100600008F939F93EF93FF93E0915D01F0915E01D3
:100610008081E0916301F091640182FD12C09081BC
:10062000809166018F5F8F7320916701821751F06F
:10063000E0916601F0E0E35BFE4F958F80936601E9
:1006400001C08081FF91EF919F918F912F910F9029
:100650000FBE0F901F9018951F920F920FB60F921A
:1006600011242F933F938F939F93AF93BF938091C8
:10067000450190914601A0914701B0914801309108
:10068000440123E0230F2D3720F40196A11DB11D55
:1006900005C026E8230F0296A11DB11D2093440139
:1006A0008093450190934601A0934701B093480180
:1006B0008091490190914A01A0914B01B0914C0168
:1006C0000196A11DB11D8093490190934A01A09309
:1006D0004B01B0934C01BF91AF919F918F913F918E
:1006E0002F910F900FBE0F901F9018951F920F9291
:1006F0000FB60F9211242F933F934F935F936F93F5
:100700007F938F939F93AF93BF93EF93FF93E0916A
:100710000601F09107010995FF91EF91BF91AF910B
:100720009F918F917F916F915F914F913F912F9109
:100730000F900FBE0F901F9018951F920F920FB63B
:100740000F9211242F933F934F935F936F937F9357
:100750008F939F93AF93BF93EF93FF93E091040127
:10076000F09105010995FF91EF91BF91AF919F9194
:100770008F917F916F915F914F913F912F910F904A
:100780000FBE0F901F901895CF93DF9310925001DA
:1007900010924F0188EE93E0A0E0B0E08093510109
:1007A00090935201A0935301B09354018CE091E0D7
:1007B00090934E0180934D0185EC90E090935A0107
:1007C0008093590184EC90E090935C0180935B01ED
:1007D00080EC90E090935E0180935D0181EC90E06D
:1007E0009093600180935F0182EC90E090936201AE
:1007F0008093610186EC90E09093640180936301A3
:1008000010926601109267011092680110926901BE
:1008100062E083E00E94CF0162E082E00E94CF01AB
:10082000E1EBF0E0E491F0E0EE0FFF1FEC55FF4F3D
:10083000A591B491B093EF01A093EE01E3E9F0E04C
:1008400084918093F201E0EBF0E0E491F0E0EE0FB0
:10085000FF1FEC55FF4FC591D491D093F101C09388
:10086000F001E2E9F0E0E491E093F3011092F50188
:100870001092F6011092F7011092F801EBE3FFE1FC
:100880003197F1F7EC91E82381E009F480E02881C9
:100890009091F301922309F082602EEE31E0809373
:1008A000F4013093ED012093EC0183E792E0909303
:1008B00007018093060180916900837F84608093A3
:1008C0006900E99A81E08093F9013093EB0120936C
:1008D000EA0189E792E090930501809304018091F9
:1008E00069008C7F816080936900E89A82E0809340
:1008F000F901DF91CF910895CF93DF9300D000D01D
:10090000CDB7DEB7789484B5826084BD84B581604C
:1009100084BD85B5826085BD85B5816085BD8091CA
:100920006E00816080936E00109281008091810042
:10093000826080938100809181008160809381003A
:10094000809180008160809380008091B1008460FC
:100950008093B1008091B00081608093B00080915D
:100960007A00846080937A0080917A00826080931C
:100970007A0080917A00816080937A0080917A0079
:10098000806880937A001092C100E0915D01F0913F
:100990005E0182E08083E0915901F0915A0110825A
:1009A000E0915B01F0915C0180E180831092650130
:1009B000E0916101F091620186E08083E0915F0146
:1009C000F0916001808180618083E0915F01F0910E
:1009D0006001808188608083E0915F01F091600117
:1009E000808180688083E0915F01F0916001808167
:1009F0008F7D808361E084E00E94CF0160E084E02D
:100A00000E9483010E940B024B015C0132E3C32E62
:100A1000D12CE12CF12C0E940B02DC01CB018819B6
:100A20009909AA09BB09883E9340A105B10558F070
:100A300021E0C21AD108E108F10888EE880E83E0AF
:100A4000981EA11CB11CC114D104E104F10419F7D2
:100A500088E191E00E947F0261E084E00E948301CE
:100A60008091F901823030F4F8948EEE91E00E948A
:100A7000310201C0F8944090F5015090F601609069
:100A8000F7017090F8017894809100019091010134
:100A9000A0910201B0910301481659066A067B062F
:100AA00009F4D3C085E291E00E947F02C301B20144
:100AB00020E034E040E050E00E944A06CA01B9015B
:100AC000660F771F881F991F0E9412076B017C0118
:100AD0004B015C019B01AC010E943408882319F092
:100AE00085E391E01FC0D701C601BF7789839A8350
:100AF000AB83BC832FEF3FEF4FE75FE7BC01CD0136
:100B00000E943408811111C02FEF3FEF4FE75FE7DC
:100B100069817A818B819C810E94DC0618162CF4F5
:100B200089E391E00E947F0284C02FEF3FEF4FE7FF
:100B30005FE4C701B6010E94C20718161CF48DE3DA
:100B400091E0F0CF2FEF3FEF4FE75FECC701B60129
:100B50000E94DC0687FDF3CF20E030E0A901C70149
:100B6000B6010E94DC0687FF11C0E0914D01F091B3
:100B70004E010190F081E02D6DE28DE491E0099548
:100B800046015701B7FAB094B7F8B0942AE037EDB0
:100B900043EA5BE3C501B4010E9470064B015C01AE
:100BA0000E94E1066B017C010E9410079B01AC01D1
:100BB000C501B4010E946F064B015C014AE0C70108
:100BC000B6010E949102E0914D01F0914E01019019
:100BD000F081E02D6EE28DE491E0099520E030E0B7
:100BE00040E251E4C501B4010E94C7076B017C01DA
:100BF0000E94E1064B01A12CB12C4AE0C501B401D1
:100C00000E949102C501B4010E9410079B01AC0132
:100C1000C701B6010E946F0620E030E040E251E4D7
:100C20000E94C7070E94E10680E090E04AE00E942F
:100C3000910281E491E00E947F0240920001509273
:100C4000010160920201709203010E94790108CFB4
:100C5000A1E21A2EAA1BBB1BFD010DC0AA1FBB1FC0
:100C6000EE1FFF1FA217B307E407F50720F0A21B32
:100C7000B30BE40BF50B661F771F881F991F1A949F
:100C800069F760957095809590959B01AC01BD01C9
:100C9000CF010895052E97FB1EF400940E94610673
:100CA00057FD07D00E94280607FC03D04EF40C9491
:100CB000610650954095309521953F4F4F4F5F4FBE
:100CC000089590958095709561957F4F8F4F9F4FB8
:100CD0000895EE0FFF1F0590F491E02D09945058F0
:100CE000BB27AA270E9487060C9488070E947A07D0
:100CF00038F00E94810720F039F49F3F19F426F460
:100D00000C9477070EF4E095E7FB0C947107E92F3C
:100D10000E94990758F3BA1762077307840795076B
:100D200020F079F4A6F50C94BB070EF4E0950B2E99
:100D3000BA2FA02D0B01B90190010C01CA01A0012D
:100D40001124FF27591B99F0593F50F4503E68F188
:100D50001A16F040A22F232F342F4427585FF3CFC9
:100D6000469537952795A795F0405395C9F77EF49A
:100D70001F16BA0B620B730B840BBAF09150A1F0E3
:100D8000FF0FBB1F661F771F881FC2F70EC0BA0F69
:100D9000621F731F841F48F4879577956795B795F1
:100DA000F7959E3F08F0B0CF9395880F08F09927EC
:100DB000EE0F9795879508950E944D0708F481E0FE
:100DC00008950E94A10788F09F5798F0B92F99279E
:100DD000B751B0F0E1F0660F771F881F991F1AF026
:100DE000BA95C9F714C0B13091F00E94BB07B1E0C9
:100DF00008950C94BB07672F782F8827B85F39F0C8
:100E0000B93FCCF3869577956795B395D9F73EF4BE
:100E100090958095709561957F4F8F4F9F4F089566
:100E2000E89409C097FB3EF4909580957095619584
:100E30007F4F8F4F9F4F9923A9F0F92F96E9BB273A
:100E40009395F695879577956795B795F111F8CFB6
:100E5000FAF4BB0F11F460FF1BC06F5F7F4F8F4F21
:100E60009F4F16C0882311F096E911C0772321F017
:100E70009EE8872F762F05C0662371F096E8862FAF
:100E800070E060E02AF09A95660F771F881FDAF706
:100E9000880F9695879597F90895990F0008550F33
:100EA000AA0BE0E8FEEF16161706E807F907C0F0F0
:100EB00012161306E407F50798F0621B730B840BF8
:100EC000950B39F40A2661F0232B242B252B21F4D2
:100ED00008950A2609F4A140A6958FEF811D811D72
:100EE000089597F99F6780E870E060E008959FEFAC
:100EF00080EC089500240A941616170618060906B1
:100F0000089500240A94121613061406050608957F
:100F1000092E0394000C11F4882352F0BB0F40F407
:100F2000BF2B11F460FF04C06F5F7F4F8F4F9F4F47
:100F3000089557FD9058440F551F59F05F3F71F0C9
:100F40004795880F97FB991F61F09F3F79F0879530
:100F50000895121613061406551FF2CF4695F1DFB9
:100F600008C0161617061806991FF1CF8695710549
:100F7000610508940895E894BB2766277727CB017D
:100F800097F908950E944D0708F48FEF08950E9485
:100F9000DA070C9488070E947A0738F00E948107CC
:100FA00020F0952311F00C9471070C94770711240D
:100FB0000C94BC070E94990770F3959FC1F3950F9D
:100FC00050E0551F629FF001729FBB27F00DB11DCD
:100FD000639FAA27F00DB11DAA1F649F6627B00D5D
:100FE000A11D661F829F2227B00DA11D621F739F46
:100FF000B00DA11D621F839FA00D611D221F749F54
:101000003327A00D611D231F849F600D211D822F9A
:10101000762F6A2F11249F5750409AF0F1F08823C1
:101020004AF0EE0FFF1FBB1F661F771F881F9150EE
:101030005040A9F79E3F510580F00C9471070C9425
:10104000BC075F3FE4F3983ED4F3869577956795A8
:10105000B795F795E7959F5FC1F7FE2B880F911D18
:101060009695879597F908950E944D07880B990BDF
:10107000089581E090E0F8940C943E08F894FFCF36
:1010800019FCFFFF300230020000000010018C004C
:10109000D900B700CB0057014465766963652052DB
:1010A00065616479004E657720506F7320286D6DFF
:1010B00029203D20006E616E00696E66006F7666C5
:0410C000000D0A0015
:00000001FF
